:2000000009C096C095C094C093C092C091C090C08FC08EC011241FBECFE9CDBF20E0A0E659
:20002000B0E001C01D92A436B207E1F701D0CAC1CF93DF93CDB7DD27C850CDBF7894BB989A
:200040003E9A86B1876886B97894E3E0DE2ED7B83D9A369A3699FECF84B095B090926300B8
:200060008092620080916000909161008815990571F3B12CA12C80E8880E86E9981E88E93C
:20008000A81EB11C0ED1CC24CA94E12CF12C8701E39420E030E0A9016EE18AE159D0A50134
:2000A000940160EE78E888E490E365D1762E29833A834B835C8369817A818B819C8127E019
:2000C000660F771F881F991F2A95D1F7A501940152D129833A834B835C836D837E838F83B8
:2000E00098872D813E814F8158856DE0220F331F441F551F6A95D1F7C12CEE24EA94FE2CB2
:200100000FE010E0672D8AE223D06FE480E111D060EA81EB0ED06EEF83E00BD0C7D08091A1
:2001200062009091630090936100809360008FCF67CFCF93DF93D82FC62F80ECBDD08D2FC9
:20014000CDD08C2FCBD0C2D080E0DF91CF9108952F923F924F925F926F927F928F929F9285
:20016000AF92BF92CF92DF92EF92FF920F931F93CF93DF93CDB7DD27C051CDBF282E362E02
:200180006701780129013A0187E0440C551C661C771C8A95D1F7A8019601C301B201EBD083
:2001A0006D837E838F8398878D809E80AF80B884A5019401C801B601ADD029873A874B870C
:2001C0005C876D877E878F87988B89859A85AB85BC85481A590A6A0A7B0AB501A4015250B1
:2001E00061097109832D90E09695982F882797958795092E000CAA0BBB0B4A015B01880E17
:20020000991EAA1EBB1E99278F2D7E2D6D2D822D90DF6C2D81E0820D8CDF6A2D637082E0E7
:20022000820D87DF99278B2D7A2D692D83E0820D80DF682D84E0820D7CDF5CE0F694E7949F
:20024000D794C7945A95D1F79C2D907F662D6F70692B85E0820D6DDF9927872D762D652D5A
:2002600086E0820D66DF642D87E0820DC05FCDBFDF91CF911F910F91FF90EF90DF90CF9016
:20028000BF90AF909F908F907F906F905F904F903F902F904ECF2F9326E12A95F1F72F91CB
:2002A0000895BA98B998C298C1980895BA9A0895BA9AF1DF13D00895082EBA9AECDF802D17
:2002C0000DD0882311F002D0F8CF0895B99ABA9AE2DFB998E0DFBA98DEDF08950894881FF8
:2002E00001C0880F59F0B99A18F40000BA9802C0BA9A00C0D0DFB998CEDFF3CFB99ABA98C2
:20030000CADFB998B19BFECF8827B29981E0C3DF992708952F923F924F925F926F927F92FA
:200320000F934424552466247718062E172E282E392E01E237942794179407940A9551F05C
:2003400020F4420E531E641E751E7794679457944794F0CF972D862D752D642D532D422D8F
:20036000312D202D0F917F906F905F904F903F902F90112408952F923F920F933324222425
:200380001124002401E20894661F771F881F991F0A9549F4532D422D312D202D0F913F9026
:2003A0002F9011240895001C111C221C331C021A130A240A350A38F7020E131E241E351E2B
:0803C0008894E2CFF894FFCF0E
:00000001FF
