:1000000009C09CC09BC09AC099C098C097C096C0B8
:1000100095C094C011241FBECFE9CDBF20E0A0E65B
:10002000B0E001C01D92A236B207E1F701D0E1C1F4
:10003000CF93DF93CDB7DD27C850CDBF7894BB9861
:1000400087B1836087B986B1876886B97894369A14
:100050003699FECF84B195B1E6E096958795EA95FD
:10006000E1F78093610020916000281709F45AC0DD
:10007000880F991F880F991F8C7F9370A9D14B010E
:100080005C0115D1CC24CA94E12CF12C8701E394B6
:1000900020E030E0A90164E18AE160D0A50194018B
:1000A00060E67BE885E390E26CD1D62E29833A8323
:1000B0004B835C8369817A818B819C8147E0660FE9
:1000C000771F881F991F4A95D1F7A501940159D12F
:1000D00029833A834B835C836D837E838F839887E8
:1000E0002D813E814F8158856DE0220F331F441FC3
:1000F000551F6A95D1F7C12CEE24EA94FE2C0FE02F
:1001000010E06D2D8AE22AD06FE480E118D060EA19
:1001100081EB15D06EEF83E012D0CED080916100DC
:100120008093600085EF91E0019709F490CFEFE5AF
:10013000F9E03197F1F700C00000F6CF61CFCF931F
:10014000DF93D82FC62F80ECBDD08D2FCDD08C2F34
:10015000CBD0C2D080E0DF91CF9108952F923F9213
:100160004F925F926F927F928F929F92AF92BF92C7
:10017000CF92DF92EF92FF920F931F93CF93DF9373
:10018000CDB7DD27C051CDBF282E362E67017801AF
:1001900029013A0187E0440C551C661C771C8A959E
:1001A000D1F7A8019601C301B201EBD06D837E8324
:1001B0008F8398878D809E80AF80B884A50194013D
:1001C000C801B601ADD029873A874B875C876D8718
:1001D0007E878F87988B89859A85AB85BC85481AE1
:1001E000590A6A0A7B0AB501A401525061097109D2
:1001F000832D90E09695982F882797958795092EBF
:10020000000CAA0BBB0B4A015B01880E991EAA1EAB
:10021000BB1E99278F2D7E2D6D2D822D90DF6C2D8D
:1002200081E0820D8CDF6A2D637082E0820D87DFB2
:1002300099278B2D7A2D692D83E0820D80DF682D23
:1002400084E0820D7CDF5CE0F694E794D794C79459
:100250005A95D1F79C2D907F662D6F70692B85E0A4
:10026000820D6DDF9927872D762D652D86E0820D15
:1002700066DF642D87E0820DC05FCDBFDF91CF9137
:100280001F910F91FF90EF90DF90CF90BF90AF90B4
:100290009F908F907F906F905F904F903F902F90A6
:1002A0004ECF2F9326E12A95F1F72F910895BA9812
:1002B000B998C298C1980895BA9A0895BA9AF1DF88
:1002C00013D00895082EBA9AECDF802D0DD0882324
:1002D00011F002D0F8CF0895B99ABA9AE2DFB9982E
:1002E000E0DFBA98DEDF08950894881F01C0880F08
:1002F00059F0B99A18F40000BA9802C0BA9A00C02E
:10030000D0DFB998CEDFF3CFB99ABA98CADFB998DF
:10031000B19BFECF8827B29981E0C3DF992708956A
:100320002F923F924F925F926F927F920F9344244D
:10033000552466247718062E172E282E392E01E212
:1003400037942794179407940A9551F020F4420E9D
:10035000531E641E751E7794679457944794F0CF8C
:10036000972D862D752D642D532D422D312D202D49
:100370000F917F906F905F904F903F902F9011243E
:1003800008952F923F920F933324222411240024A6
:1003900001E20894661F771F881F991F0A9549F488
:1003A000532D422D312D202D0F913F902F90112450
:1003B0000895001C111C221C331C021A130A240A63
:1003C000350A38F7020E131E241E351E8894E2CF1C
:1003D000A6E144E002C0A82F862FE82FE199FECFC6
:1003E00005C0EEBBE09AE3950DB20D924150C8F7FF
:0603F0000895F894FFCF10
:00000001FF
