:1000000009C09BC09AC099C098C097C096C095C0BF
:1000100094C093C011241FBECFE9CDBF10E0A0E66D
:10002000B0E0ECECF3E002C005900D92A236B1070F
:10003000D9F701D0C9C1CF93DF93CDB7DD27C85021
:10004000CDBF7894BB9887B1836087B986B1876844
:1000500086B97894369A3699FECF84B095B0E4E0AC
:1000600096948794EA95E1F7D82CC09060008C14A0
:1000700089F386E0880C991C8A95E1F780EC882248
:100080008FE39822092C000CAA08BB0882EC880E8A
:1000900080EF981E81E3A81EB11C56D0E12CF12CF4
:1000A0008701E39420E030E0A9016BE18AE1ECD024
:1000B000A501940164EC73EB8AE79BE2AFD0762E46
:1000C00029833A834B835C8369817A818B819C810C
:1000D0002AE0660F771F881F991F2A95D1F7A5017F
:1000E00094019CD029833A834B835C836D837E8308
:1000F0008F8398872D813E814F8158856AE0220F3A
:10010000331F441F551F6A95D1F7EE24EA94FE2C45
:100110000FE010E0672D8AE2B7D06DE480E1A5D052
:100120008EEFC81206C060EA81EB9FD06EEF83E0CD
:100130009CD00FD0D09260008DCF62CF2F9326E15C
:100140002A95F1F72F910895BA98B998C298C19855
:100150000895BA9A0895BA9AF1DF13D00895082E37
:10016000BA9AECDF802D0DD0882311F002D0F8CFA1
:100170000895B99ABA9AE2DFB998E0DFBA98DEDF5B
:1001800008950894881F01C0880F59F0B99A18F48F
:100190000000BA9802C0BA9A00C0D0DFB998CEDF8A
:1001A000F3CFB99ABA98CADFB998B19BFECF882726
:1001B000B29981E0C3DF992708952F923F924F9221
:1001C0005F926F927F920F93442455246624771890
:1001D000062E172E282E392E01E2379427941794D5
:1001E00007940A9551F020F4420E531E641E751EAA
:1001F0007794679457944794F0CF972D862D752D5B
:10020000642D532D422D312D202D0F917F906F9015
:100210005F904F903F902F90112408952F923F921E
:100220000F93332422241124002401E20894661F32
:10023000771F881F991F0A9549F4532D422D312DA0
:10024000202D0F913F902F9011240895001C111C18
:10025000221C331C021A130A240A350A38F7020E2C
:10026000131E241E351E8894E2CFCF93DF93D82F20
:10027000C62F80EC74DF8D2F84DF8C2F82DF79DF37
:1002800080E0DF91CF9108952F923F924F925F923D
:100290006F927F928F929F92AF92BF92CF92DF9296
:1002A000EF92FF920F931F93CF93DF93CDB7DD278C
:1002B000C051CDBF282E362E6701780129013A01A1
:1002C00087E0440C551C661C771C8A95D1F7A80161
:1002D0009601C301B201A2DF6D837E838F8398876D
:1002E0008D809E80AF80B884A5019401C801B601BD
:1002F00064DF29873A874B875C876D877E878F8786
:10030000988B89859A85AB85BC85481A590A6A0AF3
:100310007B0A832D90E09695982F8827979587954F
:10032000092E000CAA0BBB0B22E0921AA108B108FF
:10033000880E991EAA1EBB1E99278F2D7E2D6D2D0E
:10034000822D93DF6C2D81E0820D8FDF6A2D63702B
:1003500082E0820D8ADF99278B2D7A2D692D83E02B
:10036000820D83DF682D84E0820D7FDF5CE0F694F0
:10037000E794D794C7945A95D1F78C2D807F662D3A
:100380006F70682B85E0820D70DF9927872D762DA1
:10039000652D86E0820D69DF642D87E0820DC05FE8
:1003A000CDBFDF91CF911F910F91FF90EF90DF9024
:1003B000CF90BF90AF909F908F907F906F905F9005
:0C03C0004F903F902F9051CFF894FFCF4A
:0203CC00FE0031
:00000001FF
