:1000000009C091C090C08FC08EC08DC08CC08BC005
:100010008AC089C011241FBECFE9CDBF10E0A0E681
:10002000B0E0E2EEF3E002C005900D92A236B10717
:10003000D9F701D0D4C1CF93DF93CDB7DD27C85016
:10004000CDBF7894BB9887B1836087B986B1876844
:1000500086B97894369A3699FECFA4B0B5B0F6E05A
:10006000B694A794FA95E1F7809160008A1591F310
:10007000C501880F991F880F991F8C7F93709ED19F
:100080002B013C0157D0CC24CA94E12CF12C8701E0
:10009000E39420E030E0A90168E18AE1EBD0A3011C
:1000A000920160EB71E080EA96E2AED0B62E298331
:1000B0003A834B835C8369817A818B819C814AE09E
:1000C000660F771F881F991F4A95D1F7A3019201E8
:1000D0009BD029833A834B835C836D837E838F839C
:1000E00098872D813E814F8158856AE0220F331F0A
:1000F000441F551F6A95D1F770E1C72EEE24EA948C
:10010000FE2C0FE010E06B2D8AE2B4D06CE480E1AD
:10011000A2D060EA81EB9FD06EEF83E09CD00FD03D
:10012000A092600097CF6CCF2F9326E12A95F1F72C
:100130002F910895BA98B998C298C1980895BA9A1B
:100140000895BA9AF1DF13D00895082EBA9AECDF19
:10015000802D0DD0882311F002D0F8CF0895B99AE0
:10016000BA9AE2DFB998E0DFBA98DEDF0895089422
:10017000881F01C0880F59F0B99A18F40000BA9886
:1001800002C0BA9A00C0D0DFB998CEDFF3CFB99AD7
:10019000BA98CADFB998B19BFECF8827B29981E09F
:1001A000C3DF992708952F923F924F925F926F92EB
:1001B0007F920F934424552466247718062E172E19
:1001C000282E392E01E237942794179407940A9524
:1001D00051F020F4420E531E641E751E77946794EE
:1001E00057944794F0CF972D862D752D642D532D60
:1001F000422D312D202D0F917F906F905F904F9069
:100200003F902F90112408952F923F920F93332403
:1002100022241124002401E20894661F771F881FFE
:10022000991F0A9549F4532D422D312D202D0F9100
:100230003F902F9011240895001C111C221C331C88
:10024000021A130A240A350A38F7020E131E241E56
:10025000351E8894E2CFCF93DF93D82FC62F80EC42
:1002600074DF8D2F84DF8C2F82DF79DF80E0DF91D8
:10027000CF9108952F923F924F925F926F927F920B
:100280008F929F92AF92BF92CF92DF92EF92FF92A6
:100290000F931F93CF93DF93CDB7DD27C051CDBF11
:1002A000282E362E470158011C2D29013A0137E02E
:1002B000440C551C661C771C3A95D1F7A501970193
:1002C000C301B201A1DF6D837E838F839887CD80C8
:1002D000DE80EF80F884A7019601C501B40163DFD9
:1002E00029873A874B875C876D877E878F87988BB6
:1002F00089859A85AB85BC85481A590A6A0A7B0AA2
:10030000832D90E09695982F882797958795092EAD
:10031000000CAA0BBB0B22E0D21AE108F108C80EB0
:10032000D91EEA1EFB1E99278B2D7A2D692D822D51
:1003300092DF682D81E0820D8EDF6E2D637082E08A
:10034000820D1F3F09F0612B86DF99278F2D7E2DAF
:100350006D2D83E0820D7FDF6C2D84E0820D7BDFCD
:100360009CE0B694A794979487949A95D1F7882D9A
:10037000807F662D6F70682B85E0820D6CDF99277A
:10038000872D762D652D86E0820D65DF642D87E053
:10039000820DC05FCDBFDF91CF911F910F91FF9074
:1003A000EF90DF90CF90BF90AF909F908F907F9015
:1003B0006F905F904F903F902F904DCFA6E144E01B
:1003C00002C0A82F862FE82FE199FECF05C0EEBB13
:1003D000E09AE3950DB20D924150C8F70895F89454
:0203E000FFCF4D
:0203E200FE001B
:00000001FF
